{
  "contractName": "Invest",
  "abi": [
    {
      "constant": true,
      "inputs": [
        {
          "name": "",
          "type": "address"
        },
        {
          "name": "",
          "type": "uint256"
        },
        {
          "name": "",
          "type": "uint256"
        }
      ],
      "name": "mlPlan",
      "outputs": [
        {
          "name": "",
          "type": "uint256"
        }
      ],
      "payable": false,
      "stateMutability": "view",
      "type": "function"
    },
    {
      "constant": true,
      "inputs": [
        {
          "name": "",
          "type": "address"
        }
      ],
      "name": "balances",
      "outputs": [
        {
          "name": "",
          "type": "uint256"
        }
      ],
      "payable": false,
      "stateMutability": "view",
      "type": "function"
    },
    {
      "constant": true,
      "inputs": [
        {
          "name": "",
          "type": "uint256"
        }
      ],
      "name": "stockData",
      "outputs": [
        {
          "name": "",
          "type": "uint256"
        }
      ],
      "payable": false,
      "stateMutability": "view",
      "type": "function"
    },
    {
      "constant": true,
      "inputs": [],
      "name": "rate",
      "outputs": [
        {
          "name": "",
          "type": "uint256"
        }
      ],
      "payable": false,
      "stateMutability": "view",
      "type": "function"
    },
    {
      "constant": true,
      "inputs": [
        {
          "name": "",
          "type": "uint256"
        }
      ],
      "name": "usersAddress",
      "outputs": [
        {
          "name": "",
          "type": "address"
        }
      ],
      "payable": false,
      "stateMutability": "view",
      "type": "function"
    },
    {
      "constant": true,
      "inputs": [],
      "name": "_totalSupply",
      "outputs": [
        {
          "name": "",
          "type": "uint256"
        }
      ],
      "payable": false,
      "stateMutability": "view",
      "type": "function"
    },
    {
      "constant": true,
      "inputs": [],
      "name": "turnMoney",
      "outputs": [
        {
          "name": "",
          "type": "uint256"
        }
      ],
      "payable": false,
      "stateMutability": "view",
      "type": "function"
    },
    {
      "constant": true,
      "inputs": [
        {
          "name": "",
          "type": "address"
        },
        {
          "name": "",
          "type": "uint256"
        },
        {
          "name": "",
          "type": "uint256"
        }
      ],
      "name": "mlrate",
      "outputs": [
        {
          "name": "",
          "type": "uint256"
        }
      ],
      "payable": false,
      "stateMutability": "view",
      "type": "function"
    },
    {
      "constant": true,
      "inputs": [
        {
          "name": "",
          "type": "address"
        }
      ],
      "name": "userVersion",
      "outputs": [
        {
          "name": "",
          "type": "uint256"
        }
      ],
      "payable": false,
      "stateMutability": "view",
      "type": "function"
    },
    {
      "constant": true,
      "inputs": [],
      "name": "stockNum",
      "outputs": [
        {
          "name": "",
          "type": "uint256"
        }
      ],
      "payable": false,
      "stateMutability": "view",
      "type": "function"
    },
    {
      "constant": true,
      "inputs": [],
      "name": "stock",
      "outputs": [
        {
          "name": "",
          "type": "uint256"
        }
      ],
      "payable": false,
      "stateMutability": "view",
      "type": "function"
    },
    {
      "constant": true,
      "inputs": [],
      "name": "nowstock",
      "outputs": [
        {
          "name": "",
          "type": "uint256"
        }
      ],
      "payable": false,
      "stateMutability": "view",
      "type": "function"
    },
    {
      "constant": true,
      "inputs": [],
      "name": "nowrate",
      "outputs": [
        {
          "name": "",
          "type": "uint256"
        }
      ],
      "payable": false,
      "stateMutability": "view",
      "type": "function"
    },
    {
      "constant": true,
      "inputs": [
        {
          "name": "",
          "type": "address"
        }
      ],
      "name": "userName",
      "outputs": [
        {
          "name": "",
          "type": "string"
        }
      ],
      "payable": false,
      "stateMutability": "view",
      "type": "function"
    },
    {
      "anonymous": false,
      "inputs": [
        {
          "indexed": true,
          "name": "owner",
          "type": "address"
        },
        {
          "indexed": false,
          "name": "stock",
          "type": "uint256"
        },
        {
          "indexed": false,
          "name": "rate",
          "type": "uint256"
        },
        {
          "indexed": false,
          "name": "amount",
          "type": "uint256"
        }
      ],
      "name": "buyStocklog",
      "type": "event"
    },
    {
      "anonymous": false,
      "inputs": [
        {
          "indexed": true,
          "name": "owner",
          "type": "address"
        },
        {
          "indexed": false,
          "name": "stock",
          "type": "uint256"
        },
        {
          "indexed": false,
          "name": "amount",
          "type": "uint256"
        }
      ],
      "name": "sellStocklog",
      "type": "event"
    },
    {
      "anonymous": false,
      "inputs": [
        {
          "indexed": true,
          "name": "owner",
          "type": "address"
        },
        {
          "indexed": false,
          "name": "stockA",
          "type": "uint256"
        },
        {
          "indexed": false,
          "name": "stockB",
          "type": "uint256"
        },
        {
          "indexed": false,
          "name": "turnMoney",
          "type": "uint256"
        }
      ],
      "name": "changeStocklog",
      "type": "event"
    },
    {
      "anonymous": false,
      "inputs": [
        {
          "indexed": true,
          "name": "owner",
          "type": "address"
        },
        {
          "indexed": false,
          "name": "old_ver",
          "type": "uint256"
        },
        {
          "indexed": false,
          "name": "new_ver",
          "type": "uint256"
        }
      ],
      "name": "changePlanlog",
      "type": "event"
    },
    {
      "anonymous": false,
      "inputs": [
        {
          "indexed": false,
          "name": "price",
          "type": "uint256"
        }
      ],
      "name": "logPrice",
      "type": "event"
    },
    {
      "anonymous": false,
      "inputs": [
        {
          "indexed": true,
          "name": "user",
          "type": "address"
        },
        {
          "indexed": false,
          "name": "sotck",
          "type": "uint256"
        },
        {
          "indexed": false,
          "name": "amount",
          "type": "uint256"
        }
      ],
      "name": "logUserStock",
      "type": "event"
    },
    {
      "anonymous": false,
      "inputs": [
        {
          "indexed": true,
          "name": "owner",
          "type": "address"
        },
        {
          "indexed": false,
          "name": "sotck",
          "type": "uint256"
        }
      ],
      "name": "logPlan",
      "type": "event"
    },
    {
      "anonymous": false,
      "inputs": [
        {
          "indexed": true,
          "name": "owner",
          "type": "address"
        },
        {
          "indexed": false,
          "name": "sotck",
          "type": "uint256"
        },
        {
          "indexed": false,
          "name": "rate",
          "type": "uint256"
        }
      ],
      "name": "logRate",
      "type": "event"
    },
    {
      "constant": false,
      "inputs": [
        {
          "name": "_user",
          "type": "address"
        },
        {
          "name": "_money",
          "type": "uint256"
        }
      ],
      "name": "cashin",
      "outputs": [],
      "payable": false,
      "stateMutability": "nonpayable",
      "type": "function"
    },
    {
      "constant": true,
      "inputs": [],
      "name": "returnArray",
      "outputs": [
        {
          "name": "",
          "type": "address[]"
        }
      ],
      "payable": false,
      "stateMutability": "view",
      "type": "function"
    },
    {
      "constant": false,
      "inputs": [
        {
          "name": "_addr",
          "type": "address"
        },
        {
          "name": "_userName",
          "type": "string"
        }
      ],
      "name": "setUser",
      "outputs": [],
      "payable": false,
      "stateMutability": "nonpayable",
      "type": "function"
    },
    {
      "constant": false,
      "inputs": [
        {
          "name": "_to",
          "type": "address"
        },
        {
          "name": "_stock",
          "type": "uint256"
        }
      ],
      "name": "getUserStock",
      "outputs": [],
      "payable": false,
      "stateMutability": "nonpayable",
      "type": "function"
    },
    {
      "constant": false,
      "inputs": [
        {
          "name": "_user",
          "type": "address"
        },
        {
          "name": "_stock",
          "type": "uint256"
        },
        {
          "name": "_num",
          "type": "uint256"
        }
      ],
      "name": "setuserStock",
      "outputs": [],
      "payable": false,
      "stateMutability": "nonpayable",
      "type": "function"
    },
    {
      "constant": false,
      "inputs": [
        {
          "name": "_user",
          "type": "address"
        },
        {
          "name": "_ver",
          "type": "uint256"
        }
      ],
      "name": "setVersion",
      "outputs": [],
      "payable": false,
      "stateMutability": "nonpayable",
      "type": "function"
    },
    {
      "constant": false,
      "inputs": [
        {
          "name": "_user",
          "type": "address"
        },
        {
          "name": "_num",
          "type": "uint256"
        }
      ],
      "name": "setNumber",
      "outputs": [],
      "payable": false,
      "stateMutability": "nonpayable",
      "type": "function"
    },
    {
      "constant": false,
      "inputs": [
        {
          "name": "_user",
          "type": "address"
        },
        {
          "name": "_num",
          "type": "uint256"
        }
      ],
      "name": "setBalance",
      "outputs": [],
      "payable": false,
      "stateMutability": "nonpayable",
      "type": "function"
    },
    {
      "constant": true,
      "inputs": [
        {
          "name": "_user",
          "type": "address"
        }
      ],
      "name": "balanceOf",
      "outputs": [
        {
          "name": "",
          "type": "uint256"
        }
      ],
      "payable": false,
      "stateMutability": "view",
      "type": "function"
    },
    {
      "constant": false,
      "inputs": [
        {
          "name": "_addr",
          "type": "address"
        },
        {
          "name": "_ver",
          "type": "uint256"
        }
      ],
      "name": "changePlan",
      "outputs": [],
      "payable": false,
      "stateMutability": "nonpayable",
      "type": "function"
    },
    {
      "constant": false,
      "inputs": [
        {
          "name": "_to",
          "type": "address"
        },
        {
          "name": "_stock",
          "type": "uint256"
        },
        {
          "name": "_price",
          "type": "uint256"
        },
        {
          "name": "_rate",
          "type": "uint256"
        }
      ],
      "name": "buyStock",
      "outputs": [],
      "payable": false,
      "stateMutability": "nonpayable",
      "type": "function"
    },
    {
      "constant": false,
      "inputs": [
        {
          "name": "_to",
          "type": "address"
        },
        {
          "name": "_ver",
          "type": "uint256"
        }
      ],
      "name": "buyAll",
      "outputs": [],
      "payable": false,
      "stateMutability": "nonpayable",
      "type": "function"
    },
    {
      "constant": false,
      "inputs": [
        {
          "name": "_addr",
          "type": "address"
        },
        {
          "name": "_ver",
          "type": "uint256"
        }
      ],
      "name": "sellAll",
      "outputs": [],
      "payable": false,
      "stateMutability": "nonpayable",
      "type": "function"
    },
    {
      "constant": false,
      "inputs": [
        {
          "name": "_addr",
          "type": "address"
        },
        {
          "name": "_version",
          "type": "uint256"
        },
        {
          "name": "_number",
          "type": "uint256"
        }
      ],
      "name": "getPlan",
      "outputs": [
        {
          "name": "",
          "type": "uint256"
        }
      ],
      "payable": false,
      "stateMutability": "nonpayable",
      "type": "function"
    },
    {
      "constant": false,
      "inputs": [
        {
          "name": "_addr",
          "type": "address"
        },
        {
          "name": "_version",
          "type": "uint256"
        },
        {
          "name": "_number",
          "type": "uint256"
        }
      ],
      "name": "getRate",
      "outputs": [
        {
          "name": "",
          "type": "uint256"
        }
      ],
      "payable": false,
      "stateMutability": "nonpayable",
      "type": "function"
    },
    {
      "constant": false,
      "inputs": [
        {
          "name": "_from",
          "type": "address"
        },
        {
          "name": "_to",
          "type": "address"
        },
        {
          "name": "_value",
          "type": "uint256"
        }
      ],
      "name": "transferFrom",
      "outputs": [
        {
          "name": "",
          "type": "bool"
        }
      ],
      "payable": false,
      "stateMutability": "nonpayable",
      "type": "function"
    },
    {
      "constant": false,
      "inputs": [
        {
          "name": "_addr",
          "type": "address"
        },
        {
          "name": "_version",
          "type": "uint256"
        },
        {
          "name": "_num",
          "type": "uint256"
        },
        {
          "name": "_stockName",
          "type": "uint256"
        }
      ],
      "name": "setmlPlan",
      "outputs": [],
      "payable": false,
      "stateMutability": "nonpayable",
      "type": "function"
    },
    {
      "constant": false,
      "inputs": [
        {
          "name": "_addr",
          "type": "address"
        },
        {
          "name": "_version",
          "type": "uint256"
        },
        {
          "name": "_num",
          "type": "uint256"
        },
        {
          "name": "_stockRate",
          "type": "uint256"
        }
      ],
      "name": "setmlRate",
      "outputs": [],
      "payable": false,
      "stateMutability": "nonpayable",
      "type": "function"
    },
    {
      "constant": false,
      "inputs": [
        {
          "name": "_name",
          "type": "uint256"
        },
        {
          "name": "_price",
          "type": "uint256"
        }
      ],
      "name": "setStockData",
      "outputs": [],
      "payable": false,
      "stateMutability": "nonpayable",
      "type": "function"
    }
  ],
  "bytecode": "0x608060405260006005556000600e5534801561001a57600080fd5b506110278061002a6000396000f3006080604052600436106101a05763ffffffff7c010000000000000000000000000000000000000000000000000000000060003504166307555c9181146101a557806323b872dd146101de57806327e235e31461021c5780632859ddb61461023d5780632c4e722e146102555780632c91324c1461026a578063332818151461029e578063388f3cd3146102c55780633cac14c8146102eb5780633eaaf86b146103505780633f1a51b8146103655780634430d6eb146103cc5780634a1e608f146103f35780634ad9a1991461041757806351e320e21461044157806370a082311461046b57806371e862191461048c57806373690880146104a157806378e90feb146104cb5780637bab22f5146104f2578063845a177814610519578063a781ce5d1461053d578063aca9c64514610561578063aea7d1c11461057c578063b780b0641461059d578063bbccf973146105b2578063bdf3c4ae146105d6578063c8942930146105eb578063cb636e7614610600578063d69f8e6614610615578063e30443bc14610639578063e39a75181461065d578063e6b972f514610681575b600080fd5b3480156101b157600080fd5b506101cc600160a060020a0360043516602435604435610717565b60408051918252519081900360200190f35b3480156101ea57600080fd5b50610208600160a060020a036004358116906024351660443561073a565b604080519115158252519081900360200190f35b34801561022857600080fd5b506101cc600160a060020a0360043516610809565b34801561024957600080fd5b506101cc60043561081b565b34801561026157600080fd5b506101cc61082d565b34801561027657600080fd5b50610282600435610833565b60408051600160a060020a039092168252519081900360200190f35b3480156102aa57600080fd5b506101cc600160a060020a036004351660243560443561085b565b3480156102d157600080fd5b506102e9600160a060020a03600435166024356108af565b005b3480156102f757600080fd5b506103006108d1565b60408051602080825283518183015283519192839290830191858101910280838360005b8381101561033c578181015183820152602001610324565b505050509050019250505060405180910390f35b34801561035c57600080fd5b506101cc610934565b34801561037157600080fd5b5060408051602060046024803582810135601f81018590048502860185019096528585526102e9958335600160a060020a031695369560449491939091019190819084018382808284375094975061093a9650505050505050565b3480156103d857600080fd5b506102e9600160a060020a03600435166024356044356109b1565b3480156103ff57600080fd5b506102e9600160a060020a03600435166024356109d7565b34801561042357600080fd5b506102e9600160a060020a0360043516602435604435606435610ad4565b34801561044d57600080fd5b506102e9600160a060020a0360043516602435604435606435610b04565b34801561047757600080fd5b506101cc600160a060020a0360043516610b34565b34801561049857600080fd5b506101cc610b4f565b3480156104ad57600080fd5b506102e9600160a060020a0360043516602435604435606435610b55565b3480156104d757600080fd5b506101cc600160a060020a0360043516602435604435610c22565b3480156104fe57600080fd5b506101cc600160a060020a0360043516602435604435610c45565b34801561052557600080fd5b506102e9600160a060020a0360043516602435610c7d565b34801561054957600080fd5b506102e9600160a060020a0360043516602435610c99565b34801561056d57600080fd5b506102e9600435602435610d16565b34801561058857600080fd5b506101cc600160a060020a0360043516610d28565b3480156105a957600080fd5b506101cc610d3a565b3480156105be57600080fd5b506102e9600160a060020a0360043516602435610d40565b3480156105e257600080fd5b506101cc610d9e565b3480156105f757600080fd5b506101cc610da4565b34801561060c57600080fd5b506101cc610daa565b34801561062157600080fd5b506102e9600160a060020a0360043516602435610db0565b34801561064557600080fd5b506102e9600160a060020a0360043516602435610e91565b34801561066957600080fd5b506102e9600160a060020a0360043516602435610ead565b34801561068d57600080fd5b506106a2600160a060020a0360043516610ec9565b6040805160208082528351818301528351919283929083019185019080838360005b838110156106dc5781810151838201526020016106c4565b50505050905090810190601f1680156107095780820380516001836020036101000a031916815260200191505b509250505060405180910390f35b600d60209081526000938452604080852082529284528284209052825290205481565b600160a060020a038316600090815260066020526040812054821180159061077c5750600160a060020a03831660009081526006602052604090205482810110155b151561078757600080fd5b600160a060020a038416600090815260076020908152604080832033845290915290205482810311156107b957600080fd5b50600160a060020a03808416600090815260066020818152604080842080548790039055600782528084203385528252808420805487900390559386168352522080548201905560019392505050565b60066020526000908152604090205481565b60096020526000908152604090205481565b60035481565b600080548290811061084157fe5b600091825260209091200154600160a060020a0316905081565b600160a060020a0383166000818152600d602090815260408083208684528252808320858452825280832054600255928252600c815282822085835281528282208483529052205460038190559392505050565b600160a060020a03909116600090815260066020526040902080549091019055565b6060600080548060200260200160405190810160405280929190818152602001828054801561092957602002820191906000526020600020905b8154600160a060020a0316815260019091019060200180831161090b575b505050505090505b90565b60055481565b60008054600180820183557f290decd9548b62a8d60345a988386fc84ba6bc95484008f6362f93160ef3e563909101805473ffffffffffffffffffffffffffffffffffffffff1916600160a060020a03861690811790915582526020908152604090912082516109ac92840190610f63565b505050565b600160a060020a0390921660009081526008602090815260408083209383529290522055565b60015b60058111610ac5576109ed838284610c45565b600f556109fb83828461085b565b6010819055600f546000908152600960209081526040808320543384526006909252909120549091906064900402811515610a3257fe5b046004819055336000818152600860209081526040808320600f80548552818452828520879055548085526009845282852054600e805491909802019096556010548685529083529281902054815195865291850192909252838201525190917ff261fcf173d0e5e135d57d51e011221765e82e785b8fbc671aa8c583e225a642919081900360600190a26001016109da565b50506000600e81905560045550565b600160a060020a039093166000908152600c60209081526040808320948352938152838220928252919091522055565b600160a060020a039093166000908152600d60209081526040808320948352938152838220928252919091522055565b600160a060020a031660009081526006602052604090205490565b600e5481565b600160a060020a0384166000908152600660205260409020548290606490048202811515610b7f57fe5b046004819055600160a060020a0385166000818152600860209081526040808320888452825291829020848155938602600e5592548151878152938401859052838201525190917ff261fcf173d0e5e135d57d51e011221765e82e785b8fbc671aa8c583e225a642919081900360600190a25050600e8054600160a060020a03909316600090815260066020526040812080549490940390935582905550600455565b600c60209081526000938452604080852082529284528284209052825290205481565b600160a060020a0383166000908152600d60209081526040808320858452825280832084845290915290205460028190559392505050565b600160a060020a039091166000908152600b6020526040902055565b336000908152600a60209081526040918290205482519081529081018390528151600160a060020a038516927f7e36fba7ac474b9efe09e2fa7beb319021f75aa19f4d45f0918774cbfb992801928290030190a2336000908152600a6020526040902054610d08908390610db0565b610d1282826109d7565b5050565b60009182526009602052604090912055565b600a6020526000908152604090205481565b60045481565b336000908152600860209081526040808320848452825291829020548251848152918201528151600160a060020a038516927fa93171a6ac97805e8a7690508e3e3d7f6d6fe2167b29b056be4132d66a2262fd928290030190a25050565b60025481565b600f5481565b60105481565b60015b600581116109ac57610dc6838383610c45565b600f55610dd483838361085b565b601055336000818152600860209081526040808320600f80548552818452828520546009808652848720548888526006808852868920805492909402909101909255825487528386528487205490865284872054600160a060020a038c168852918652848720805492909102909103905554808552908352928190205481519384529183019190915280517f26ba2318c47d07d6a1d7a05f46630e0abe068ca4f060972750d7318a010b54b49281900390910190a2600101610db3565b600160a060020a03909116600090815260066020526040902055565b600160a060020a039091166000908152600a6020526040902055565b60016020818152600092835260409283902080548451600294821615610100026000190190911693909304601f8101839004830284018301909452838352919290830182828015610f5b5780601f10610f3057610100808354040283529160200191610f5b565b820191906000526020600020905b815481529060010190602001808311610f3e57829003601f168201915b505050505081565b828054600181600116156101000203166002900490600052602060002090601f016020900481019282601f10610fa457805160ff1916838001178555610fd1565b82800160010185558215610fd1579182015b82811115610fd1578251825591602001919060010190610fb6565b50610fdd929150610fe1565b5090565b61093191905b80821115610fdd5760008155600101610fe75600a165627a7a723058205629d236c24cc960449fa06b702b6176e391523e10ba685a2bbf7276096dfb750029",
  "source": "pragma solidity ^0.4.25;\n\n/* \n\n\n\n*/\n\n//import \"./MLPortfolio.sol\";\n\ncontract Invest /* is MLPortfolio*/{\n \n    address[] public usersAddress;\n    mapping(address => string) public userName; \n    uint public stock;\n    uint public rate;\n    uint public stockNum;\n    uint256 public _totalSupply = 0; \n    mapping(address => uint256) public balances;  \n    mapping(address => mapping(address => uint256)) allowed;\n    mapping(address => mapping(uint => uint)) userStock;\n    mapping(uint => uint) public stockData;\n    mapping(address => uint) public userVersion;\n    mapping(address => uint) userNumber;\n    mapping(address => mapping(uint => mapping (uint => uint))) public mlrate;\n    mapping(address => mapping (uint => mapping (uint => uint))) public mlPlan; //1-10\n    uint public turnMoney = 0;\n    uint public nowstock;\n    uint public nowrate;\n    uint num;\n    \n    \n    event buyStocklog(address indexed owner, uint stock, uint rate,uint amount);\n    event sellStocklog(address indexed owner, uint stock, uint amount);\n    event changeStocklog(address indexed owner, uint stockA, uint stockB, uint turnMoney);\n    event changePlanlog(address indexed owner, uint old_ver, uint new_ver);\n    event logPrice(uint price);\n    event logUserStock(address indexed user, uint sotck,uint amount);\n    event logPlan(address indexed owner, uint sotck);\n    event logRate(address indexed owner,uint sotck, uint rate);\n    \n    function cashin(address _user, uint _money) public{\n        balances[_user] += _money;\n        //msg.sender.transfer(_money);\n        \n    }\n\n\n    // \n    function returnArray() public view returns(address[]) {\n        return usersAddress;\n    }\n    \n    function setUser(address _addr, string _userName) public {\n        usersAddress.push(_addr);\n        userName[_addr] = _userName;\n    }\n    \n    function getUserStock(address _to, uint _stock) public {\n        \n        /* for(uint i=1; i <=5; i++){\n          nowstock = getPlan(_to,i,userVersion[msg.sender]);\n          emit logUserStock(msg.sender,nowstock,userStock[msg.sender][_stock]);\n        }*/\n        emit logUserStock(_to,_stock,userStock[msg.sender][_stock]);\n    }\n\n    function setuserStock(address _user, uint _stock, uint _num) public{\n        userStock[_user][_stock] = _num;\n    }\n    \n    function setVersion(address _user, uint _ver) public{\n        userVersion[_user] = _ver;\n    }\n\n    function setNumber(address _user, uint _num) public{\n        userNumber[_user] = _num;\n    }\n\n    function setBalance(address _user, uint _num) public{\n        balances[_user] = _num;\n        //_user.balance -= _num;\n        //this.balance += _num;\n    }\n    \n    // Token \n    function balanceOf(address _user) public view returns (uint){\n       return balances[_user];\n    }\n    \n    function changePlan(address _addr, uint _ver) public{\n        \n        emit changePlanlog(_addr,userVersion[msg.sender],_ver);\n        sellAll(_addr,userVersion[msg.sender]);\n        buyAll(_addr,_ver);\n        \n    }\n\n    \n    /*function updateStock(address _addr, string _stockA, string _stockB) public{\n        \n        sellStock(_addr,_stockA);\n        buyStock(_addr,balances[msg.sender],_stockB);\n        \n        emit changeStocklog(_addr,_stockA,_stockB,turnMoney);\n        \n    }*/\n    \n    \n    \n    // function  msg.senderToken tokens\n    //toToken tokensTransfer(msg.sender, to, tokens) LogToken \n    /*function buyStock(address _to, uint256 _value, string _stock) public {\n        require(balances[msg.sender] >= _value && balances[_to] + _value >= balances[_to]);\n        \n        \n         for(uint i=1; i <=5; i++){\n          if( keccak256(_stock) == keccak256(getPlan(_to,i,userVersion[msg.sender]))){\n              num = i;\n          }\n        }\n          nowrate = getRate(_to,num,userVersion[msg.sender]);\n          userStock[msg.sender][_stock]=((balances[msg.sender]/100)*nowrate)/StockPrice(_stock);\n          turnMoney += (balances[msg.sender]/100)*nowrate;\n          balances[msg.sender] = balances[msg.sender] - turnMoney;\n          balances[_to] = balances[_to] + turnMoney;\n          emit buyStocklog(msg.sender,_stock,StockPrice(_stock),userStock[msg.sender][_stock]);\n          \n    }*/\n    \n    /*function buyStock(address _to, uint256 _value, string _stock) public {\n        require(balances[msg.sender] >= _value && balances[_to] + _value >= balances[_to]);\n         \n          nowrate = getRate(_to,userNumber[msg.sender],userVersion[msg.sender]);\n          userStock[msg.sender][_stock]=((balances[msg.sender]/100)*nowrate)/StockPrice(_stock);\n          turnMoney += (balances[msg.sender]/100)*nowrate;\n          balances[msg.sender] = balances[msg.sender] - turnMoney;\n          balances[_to] = balances[_to] + turnMoney;\n          emit buyStocklog(msg.sender,_stock,StockPrice(_stock),userStock[msg.sender][_stock]);\n          \n    }\n\n    function sellStock (address _to,  string _stock) public returns (bool){\n        \n        turnMoney= StockPrice(_stock)*userStock[msg.sender][_stock]; //numberxprice\n       \n        require(balances[_to] >= turnMoney && balances[msg.sender] + turnMoney >= balances[msg.sender]);  // prevent balance underflow & overflow\n        balances[msg.sender] = balances[msg.sender] + turnMoney;\n        balances[_to] = balances[_to] - turnMoney;\n        userStock[msg.sender][_stock]=0;\n        \n        emit sellStocklog(msg.sender,_stock,userStock[msg.sender][_stock]);\n        \n        return true;\n    }*/\n    \n    //toToken tokensTransfer(msg.sender, to, tokens) LogToken \n    \n    function buyStock(address _to, uint256 _stock, uint _price, uint _rate) public {\n        \n        //require(balances[msg.sender] >= _value && balances[_to] + _value >= balances[_to]);\n        //balances[_to] = balances[_to] + _value;\n\n          stockNum = ((balances[_to]/100)* _rate)/_price;\n          userStock[_to][_stock]= stockNum;\n          turnMoney = _price * stockNum;\n          emit buyStocklog(_to,_stock,_rate,userStock[_to][_stock]);\n          balances[_to] -= turnMoney; //each stock number\n         // balances[_to] += turnMoney*(1+(6/1000));\n         turnMoney = 0;\n         stockNum = 0;\n    \n    }\n    \n    \n    \n    function buyAll(address _to, uint256 _ver) public {\n        \n        //require(balances[msg.sender] >= _value && balances[_to] + _value >= balances[_to]);\n        //balances[_to] = balances[_to] + _value;\n        \n        for(uint i=1; i <=5; i++){\n          nowstock = getPlan(_to,i,_ver);\n          nowrate = getRate(_to,i,_ver);\n          stockNum = ((balances[msg.sender]/100)*nowrate)/stockData[nowstock];\n          userStock[msg.sender][nowstock]= stockNum;\n          turnMoney += stockData[nowstock]* stockNum;\n          emit buyStocklog(msg.sender,nowstock,nowrate,userStock[msg.sender][nowstock]);\n        }\n        \n        // balances[msg.sender] -= turnMoney*(1+(6/1000)); //each stock number\n        // balances[_to] += turnMoney*(1+(6/1000));\n         turnMoney = 0;\n         stockNum = 0;\n    \n    }\n    \n     function sellAll(address _addr,uint256 _ver) public {\n        \n        for(uint i=1; i <=5; i++){\n          nowstock = getPlan(_addr,_ver,i);\n          nowrate = getRate(_addr,_ver,i);\n          balances[msg.sender] = balances[msg.sender] + (stockData[nowstock]*userStock[msg.sender][nowstock]);\n          balances[_addr] = balances[_addr] - (stockData[nowstock]*userStock[msg.sender][nowstock]); //each stock number\n          emit sellStocklog(msg.sender,nowstock,userStock[msg.sender][nowstock]);\n        }\n    \n    }\n    \n    function getPlan(address _addr, uint _version, uint _number) public returns (uint){\n      \n         stock =  mlPlan[_addr][_version][_number];\n         \n         //emit logPlan(_addr,stock);\n         \n         return stock;\n    \n    }\n    \n    function getRate(address _addr, uint _version, uint _number) public returns (uint){\n       \n         stock =  mlPlan[_addr][_version][_number];\n         rate = mlrate[_addr][_version][_number];\n        // emit logRate(_addr,stock,rate);\n         return rate;\n    \n    }\n   \n    \n    // from Token tokens allowed msg.sender  from Token tokens\n    // toToken tokensTransfer(from, to, tokens) LogToken \n    function transferFrom(address _from, address _to, uint256 _value) public returns (bool){\n        require(balances[_from] >= _value && balances[_to] + _value >= balances[_to]);  // prevent balance underflow & overflow\n        require(allowed[_from][msg.sender] - _value <= allowed[_from][msg.sender]);  // prevent allowed underflow\n        balances[_from] = balances[_from] - _value;\n        allowed[_from][msg.sender] = allowed[_from][msg.sender] - _value;\n        balances[_to] = balances[_to] + _value;\n        return true;\n    }\n    \n    function setmlPlan(address _addr, uint _version, uint _num, uint _stockName) public { \n\n            mlPlan[_addr][_version][_num] = _stockName;\n    }\n\n    function setmlRate(address _addr, uint _version,uint _num, uint256 _stockRate) public {\n\n            mlrate[_addr][_version][_num] = _stockRate;\n    \n    }\n    \n   \n    \n    \n    function setStockData(uint _name, uint _price) public{\n        stockData[_name]=_price;\n    }\n    \n   /* function StockPrice (string _name) public returns (uint){\n         stockData[\"\"]=100;\n         stockData[\"\"]=80;\n         stockData[\"\"]=70;\n         stockData[\"\"]=50;\n         stockData[\"\"]=70;\n         stockData[\"\"]=60;\n         stockData[\"\"]=80;\n         stockData[\"\"]=55;\n         stockData[\"\"]=60;\n         stockData[\"\"]=30;\n         stockData[\"\"]=10;\n         stockData[\"\"]=45;\n         stockData[\"\"]=80;\n         stockData[\"\"]=30;\n         stockData[\"\"]=55;\n        \n        // emit logPrice(stockData[_name]);\n         return stockData[_name];\n    }\n\n    function setmlPlan(address _addr, uint _version) public {\n        // program, age\n        if(_version == 1){\n            mlPlan[_addr][_version][1] = \"\";\n            mlPlan[_addr][_version][2] = \"\";\n            mlPlan[_addr][_version][3] = \"\";\n            mlPlan[_addr][_version][4] = \"\";\n            mlPlan[_addr][_version][5] = \"\";\n            mlPlan[_addr][_version][6] = \"\";\n            mlPlan[_addr][_version][7] = \"\";\n            mlPlan[_addr][_version][8] = \"\";\n            mlPlan[_addr][_version][9] = \"\";\n            mlPlan[_addr][_version][10] = \"\";\n        }\n        if(_version == 2){\n            mlPlan[_addr][_version][1] = \"\";\n            mlPlan[_addr][_version][2] = \"\";\n            mlPlan[_addr][_version][3] = \"\";\n            mlPlan[_addr][_version][4] = \"\";\n            mlPlan[_addr][_version][5] = \"\";\n            mlPlan[_addr][_version][6] = \"\";\n            mlPlan[_addr][_version][7] = \"\";\n            mlPlan[_addr][_version][8] = \"\";\n            mlPlan[_addr][_version][9] = \"\";\n            mlPlan[_addr][_version][10] = \"\";\n        }\n        if(_version == 3){\n            mlPlan[_addr][_version][1] = \"\";\n            mlPlan[_addr][_version][2] = \"\";\n            mlPlan[_addr][_version][3] = \"\";\n            mlPlan[_addr][_version][4] = \"\";\n            mlPlan[_addr][_version][5] = \"\";\n            mlPlan[_addr][_version][6] = \"\";\n            mlPlan[_addr][_version][7] = \"\";\n            mlPlan[_addr][_version][8] = \"\";\n            mlPlan[_addr][_version][9] = \"\";\n            mlPlan[_addr][_version][10] = \"\";\n        }\n    }\n    \n     function setmlRate(address _addr, uint _version) public {\n        // program, age\n        if(_version == 1){\n            mlrate[_addr][_version][1] = 20;\n            mlrate[_addr][_version][2] = 10;\n            mlrate[_addr][_version][3] = 5;\n            mlrate[_addr][_version][4] = 1;\n            mlrate[_addr][_version][5] = 15;\n            mlrate[_addr][_version][6] = 7;\n            mlrate[_addr][_version][7] = 2;\n            mlrate[_addr][_version][8] = 12;\n            mlrate[_addr][_version][9] = 8;\n            mlrate[_addr][_version][10] = 10;\n        }\n        if(_version == 2){\n            mlrate[_addr][_version][1] = 15;\n            mlrate[_addr][_version][2] = 15;\n            mlrate[_addr][_version][3] = 5;\n            mlrate[_addr][_version][4] = 1;\n            mlrate[_addr][_version][5] = 10;\n            mlrate[_addr][_version][6] = 12;\n            mlrate[_addr][_version][7] = 2;\n            mlrate[_addr][_version][8] = 12;\n            mlrate[_addr][_version][9] = 8;\n            mlrate[_addr][_version][10] = 10;\n        }\n        if(_version == 3){\n            mlrate[_addr][_version][1] = 15;\n            mlrate[_addr][_version][2] = 10;\n            mlrate[_addr][_version][3] = 5;\n            mlrate[_addr][_version][4] = 11;\n            mlrate[_addr][_version][5] = 15;\n            mlrate[_addr][_version][6] = 7;\n            mlrate[_addr][_version][7] = 2;\n            mlrate[_addr][_version][8] = 10;\n            mlrate[_addr][_version][9] = 10;\n            mlrate[_addr][_version][10] = 5;\n        }\n    }*/\n    \n}\n\n",
  "sourcePath": "/Users/chufangting/Invest/contracts/Invest.sol",
  "compiler": {
    "name": "solc",
    "version": "0.4.26+commit.4563c3fc.Emscripten.clang"
  },
  "schemaVersion": "3.0.12",
  "updatedAt": "2020-09-09T18:54:10.773Z",
  "devdoc": {
    "methods": {}
  },
  "userdoc": {
    "methods": {}
  }
}